:020000040800F2
:10000000285E002009030008473900083934000839
:10001000453900082D060008954C00080000000036
:10002000000000000000000000000000490200087D
:10003000C90A000800000000A50200085D4400088D
:1000400023030008230300082303000823030008F8
:1000500023030008230300082303000823030008E8
:10006000230300082303000823030008F509000800
:1000700023030008010A00082303000823030008E3
:100080000D0A0008230300082303000823030008C7
:100090003D0700082303000823030008230300088A
:1000A0002303000823030008230300082303000898
:1000B0002303000823030008230300082303000888
:1000C0002303000823030008230300082303000878
:1000D000230300085D4C00087D4C00082303000842
:1000E0002303000823030008230300082303000858
:1000F00023030008314500082303000823030008F8
:100100002303000823030008230300082303000837
:10011000B5470008D9470008230300082303000857
:100120002303000823030008190A0008230300081A
:100130002303000800000000000000002303000863
:100140008507000823030008230300082303000891
:1001500023030008230300082303000823030008E7
:1001600023030008230300082303000823030008D7
:100170002303000823030008000000000000000023
:10018000230300082303000800F002F800F04CF8F5
:100190000AA090E8000C82448344AAF10107DA45E2
:1001A00001D100F041F8AFF2090EBAE80F0013F0E8
:1001B000010F18BFFB1A43F001031847F067000056
:1001C000106800000A4410F8014B14F00F0508BF36
:1001D00010F8015B240908BF10F8014B6D1E05D013
:1001E00010F8013B6D1E01F8013BF9D1641E03D0EC
:1001F000641E01F8015BFBD19142E4D3704700001B
:100200000023002400250026103A28BF78C1FBD81F
:10021000520728BF30C148BF0B6070471FB506F0BA
:10022000F3FA1FBD10B510BD00F0BAF91146FFF783
:10023000F5FF05F01FFA00F0D8F903B4FFF7F2FF5D
:1002400003BC00F0DBF900002C4B19680868B0E82B
:10025000F04F80F30988BFF36F8F4FF0000080F3F9
:10026000118870470000000008480068006880F3AB
:1002700008884FF0000080F3148862B661B6BFF3BF
:100280004F8FBFF36F8F00DF00BF00BF08ED00E0AE
:10029000DFF80C00016841F470010160704700BF95
:1002A00088ED00E0EFF30980BFF36F8F134B1A68FE
:1002B0001EF0100F08BF20ED108A20E9F04F1060EB
:1002C00009B44FF0500080F31188BFF34F8FBFF394
:1002D0006F8F05F0B7FE4FF0000080F3118809BC66
:1002E00019680868B0E8F04F1EF0100F08BFB0ECB6
:1002F000108A80F30988BFF36F8F70478001002058
:10030000EFF305807047000009488047094800471F
:10031000FEE7FEE7FEE7FEE7FEE7FEE7FEE7FEE7B5
:10032000FEE7FEE704480549054A064B7047000012
:100330002145000889010008284E0020285E002081
:10034000285600202856002053EA020C00F069804D
:100350002DE9F04B4FF00006002B1FBFB3FA83F5D9
:1003600003FA05F424FA05F65E4012BF1643B2FA0A
:1003700082F502FA05F4C5F120051EBF22FA05FC3C
:1003800044EA0C04203556EA044C4FEA144418BFE2
:10039000641C4FF000084FF00009904271EB030C11
:1003A00039D3002919BFB1FA81F701FA07F6B0FA7B
:1003B00080F700FA07F6C7F120071EBF20FA07FCF6
:1003C00046EA0C062037B6FBF4FCA7EB0507103F06
:1003D00007F01F0BCBF120060CFA0BFB2CFA06F6EC
:1003E00044BFB3460026202FA4BF5E464FF0000B4B
:1003F0005BEA060C08BF4FF0010B19EB0B09ABFBD6
:10040000027C48EB0608C01B06FB02CC0BFB03CCAE
:1004100071EB0C01C1E70B46024641464846BDE878
:10042000F08B13B54FF000004FF00001AFF30080E8
:10043000BDE81C407047032A40F2308010F0030CE6
:1004400000F0158011F8013BBCF1020F624498BF27
:1004500011F801CB00F8013B38BF11F8013BA2F1C4
:10046000040298BF00F801CB38BF00F8013B11F03F
:10047000030300F02580083AC0F0088051F8043BDF
:10048000083A51F804CBA0E80810F5E7121D5CBF4C
:1004900051F8043B40F8043BAFF30080D20724BF7F
:1004A00011F8013B11F801CB48BF11F8012B24BF13
:1004B00000F8013B00F801CB48BF00F8012B704762
:1004C00010B5203AC0F00B80B1E81850203AA0E8EF
:1004D0001850B1E81850A0E81850BFF4F5AF5FEA23
:1004E000027C24BFB1E81850A0E8185044BF18C9D6
:1004F00018C0BDE810405FEA827C24BF51F8043B7D
:1005000040F8043B08BF7047D20728BF31F8023BD0
:1005100048BF11F8012B28BF20F8023B48BF00F864
:10052000012B70474FF0000200B5134694469646E3
:10053000203922BFA0E80C50A0E80C50B1F12001F6
:10054000BFF4F7AF090728BFA0E80C5048BF0CC0A4
:100550005DF804EB890028BF40F8042B08BF704702
:1005600048BF20F8022B11F0804F18BF00F8012B74
:10057000704770477047704710B500F009F8006881
:1005800010BD10B5044600F003F8046010BD000073
:1005900000487047C44D002000487047C44D0020FB
:1005A0007546FFF7F9FFAE4605006946534620F051
:1005B0000700854618B020B5FFF7B4FEBDE820401F
:1005C0004FF000064FF000074FF000084FF0000B0F
:1005D00021F00701AC46ACE8C009ACE8C009ACE8C2
:1005E000C009ACE8C0098D46704710B50446AFF3AA
:1005F00000802046BDE81040FFF71FBE01491820CB
:10060000ABBEFEE72600020070470000017880299B
:1006100008D181787F2905D103490A68521C0A60F4
:100620004078486070470000B8000020FEE70000F6
:1006300000B587B040F233310822009104920021C6
:10064000094A0391030A0291137050709170D1709E
:10065000117151719171D17101236946034800F004
:1006600007FD07B000BD000034010020FC0A002097
:1006700030B587B04FF48F640A9D00940024039432
:100680000294082404940A4C20706170100AA0702F
:10069000E270180A20716371280AA071E5710123C4
:1006A00022466946034800F0E3FC07B030BD000075
:1006B0004C010020FC0A002070B586B04FF4E964BC
:1006C000DDE90A650094002403940294082404944C
:1006D000094C20706170A270E370300A207166715D
:1006E000280AA071E571012322466946034800F0FB
:1006F000BFFC06B070BD000044010020FC0A0020D1
:1007000000B58BB00020012103900490CDE90601D3
:10071000CDE90810059000900190029069460648C6
:1007200000F014FD044801F043F90221024800F0F2
:100730008DFC0BB000BD0000FC0A0020014800F059
:1007400000BE0000FC0A002000B58BB00E20059012
:100750000020012103900490CDE90601CDE90810A5
:100760000090019002906946054800F0EFFC0448B3
:1007700001F01EF90221024800F068FC0BB000BD38
:10078000240B0020014800F0DCBD0000240B0020F9
:1007900000B50E4802F051FE0C48643002F04DFEE8
:1007A0000A48C83002F049FE094802F046FE0748F0
:1007B0000849B0F85C200A80B0F8C0204A80B0F840
:1007C00024218A80B0F88801C88000BD98060020E6
:1007D000C40700207000002070B506463A480D4658
:1007E0003A4990ED000ADFED3A0A10EE100A394C52
:1007F000884203DA9FED381A30EE010A30EE600AC3
:10080000DFED360A84ED090A20EE200ADFED340A16
:1008100084ED0A0A20EE200A84ED080A04F01EFB8B
:1008200000EE906AF8EEE00A20EE200A84ED040A59
:1008300094ED080A04F06AFA00EE906AF8EEE00A15
:1008400020EE200A84ED050A94ED080A04F006FB68
:1008500000EE905AF8EEE00A20EE200A84ED060A37
:1008600094ED080A04F052FA00EE905A1E48F8EE91
:10087000E00A60EE200A9FED1B0AC4ED070A94ED22
:10088000051AD4ED061A31EE611AD4ED041A71EE90
:10089000A00A70EEC11A70EE211AC0ED071AF1EE2F
:1008A000411A71EEE01A70EE211AC0ED201A71EEB5
:1008B000601A71EE200A70EE211A30EE200AC0EDA7
:1008C000391A80ED520A70BD8C0800200080E74480
:1008D0000080E7448800002000F8FF45A005343D73
:1008E000A7E78E3C00803B45980600203248DFEDAC
:1008F000330A344A90ED000A314830EEC00ADFED89
:10090000320A10EE101A80ED0B0A914202DD30EE31
:10091000600A06E010EE101A2C4A914203D930EE1C
:10092000200A80ED0B0A0188294A2A4B012907D1A8
:1009300010EE101A914201DA994201D30021018090
:1009400010EE101A914204DC994202D80121018074
:1009500070470288002AFBD11F4A914202DB9FEDBB
:100960001F0A04E01E4A914203D39FED1E0A80ED48
:100970000B0ADFED1D0AB0EE401A1C4881EE200A7A
:1009800090ED071ADFED1A0A00EE201A80ED071A23
:1009900090ED201A00EE201A80ED201A90ED391A01
:1009A00000EE201A80ED391A90ED521A00EE201A4E
:1009B00080ED521A704700008C0800200080E74448
:1009C0008800002000F07F450000004600F07FC551
:1009D00000004842000048C20000074400000744ED
:1009E000000007C4000007C4000048439806002028
:1009F00000007A44014801F069B800006C0F002043
:100A0000014801F063B800000C0F0020014801F01C
:100A10005DB800002C100020014801F057B800001C
:100A2000CC0F002001681823CAB2103AB2FBF3F2CF
:100A3000054B6FF30901032A9B5CC36500D9091DAF
:100A400081650846704700001069000810B501462E
:100A500000208B698A6A4FF0C07453B1B3F5005F10
:100A600015D072B1012A0CD0022A0AD0032A09D16A
:100A700004E01AB1012A06D0022A03D1C96AC901C9
:100A800000D5012010BDC96AA142FAD010BD002ACC
:100A9000F7D0012AF2D0022AF3D0032AF3D010BDF6
:100AA00030B50468256825F48025256004686360F6
:100AB0008368402B036803D099600068C26030BD32
:100AC0009A600068C16030BD7047000000EBC00153
:100AD00010B5114800EB81042068606005F040FC0F
:100AE0002060E17C4A0603D521F04001E174E0601A
:100AF000A06958B1804748B1E07C40F0A000E074A4
:100B0000206A002806D0BDE810400047E07C20F0B5
:100B10008000E07410BD000000030020F0B58DB02F
:100B2000044630221B496846FFF7CAFC00221A4BD4
:100B300010466D4602EB420602EBC20103EB810157
:100B400035F816C00F8A05EB46066CF30B070F82CB
:100B5000B6F802C0B1F81170521C6CF30F17A1F86F
:100B600011703779CE7C886167F34406C8610862EA
:100B700046F0E106CE7448610C604C608C60D2B2E5
:100B8000CC60082AD6D3054999610549D961186214
:100B90000DB0F0BD1C68000800030020113D0008E6
:100BA000095D000804F024FB05F0DAFB0349486105
:100BB00002483921143005F0ABF9F9E7D0000020E4
:100BC00072B6FEE7124800B501789FED120A12488E
:100BD000DFED120A012902D0022905D00CE080EDD8
:100BE000070AC0ED200A07E00D49CA890D49012A0C
:100BF0000BD049680129F2D0074804F0E5FC06480B
:100C00005DF804EB643004F0DFBC01224A60E6E7E3
:100C1000000000200020B245540900200020B2C589
:100C2000FC0100205400002070B5254C20780128DC
:100C30000DD124480078012814D002283FD1224841
:100C4000B0F900102148B0F90000FFF7C5FD207889
:100C5000022834D11E4A0021012354881D48012C4A
:100C600003D004E0FFF742FEF1E795881DB19588B7
:100C7000012D03D003E0C0E902310DE01CB184680E
:100C8000012C03D004E0C0E902130FE0C5681DB1D8
:100C9000C168012902D002E0416003E034B140683C
:100CA000012804D0BDE87040FFF720BE4360B2F9D0
:100CB0001010B2F91200BDE87040FFF78DBD70BD95
:100CC0000000002001000020060000200800002095
:100CD000FC010020880000202DE9F0412F482DED77
:100CE000028B04F059FB2E4804F0A8FB2B4D2D4C31
:100CF0002B4E95ED000A84ED010AB6F9020005F0CD
:100D00006EFC9FED298B53EC182B05F07FFC05F052
:100D100005FC274F786095ED020A264D85ED010A06
:100D2000B6F9040005F05BFC53EC182B05F06EFCE3
:100D300005F0F4FB204EB3EE090A7060184894EDFC
:100D4000001A1038D0ED000A30EE800AB4EEC01A56
:100D5000F1EE10FA08DABAEE0C0A30EE800AB4EEC0
:100D6000C01AF1EE10FA01D884ED000A114800F023
:100D7000C9F895ED090A104886ED000A00F03EF822
:100D8000084800F0BFF894ED090A094887ED000A09
:100D9000BDEC028BBDE8F04100F030B8E00200206D
:100DA00064000020EC0B00209A9999999999B93F19
:100DB000940B0020C00B0020680B002000B504F04D
:100DC000D1FB5DF804EB04F085BB000005F0C8FA28
:100DD0000949886003F052F9FFF77EFFFFF7F2FE42
:100DE00003F05AFA04F010FA02F0AEFD02480221B4
:100DF000083005F08DF8EDE7D000002030B5354A19
:100E000090EC020A70EE600AC0ED060A90ED020A4C
:100E100030EE200A10EE101A80ED020A914203DB38
:100E20009FED2D0A80ED020A10EE101A2B4A914216
:100E300003D39FED2B0A80ED020A826A294B9FEDB6
:100E40002A1A2A4CDFED2A1A032A0AD110EE101AA8
:100E5000994201DB80ED021A8168A14201D3C0ED05
:100E6000021A90ED030A90ED042AD0ED022A20EE3A
:100E7000200A204D02EE220A90ED072AD0ED052A25
:100E800030EEC22A02EE820A10EE101A80ED080A35
:100E9000C0ED070A80ED090AA94203DB9FED160A9F
:100EA00080ED090A10EE101A144DA94203D39FEDEC
:100EB000140A80ED090A032A0AD110EE101A994289
:100EC00001DB80ED091A416AA14201D3C0ED091A84
:100ED00030BD00000050C3460050C3460050C3C69A
:100EE0000050C3C600401C4600401C4600401CC6C3
:100EF00000401CC60060EA460060EA460060EAC6A0
:100F00000060EAC610B590EC020A70EE600AC0ED0F
:100F1000060A836A012B22D110EE904A3C4A9FEDCB
:100F20003D1A3D4994420ADD10EE104A944206DC17
:100F300010EE104A8C4202D830EEC10A0DE010EEDD
:100F4000904A8C420BD910EE104A944207DC10EE06
:100F5000102A8A4203D830EE810A80ED060A90ED0D
:100F6000020AD0ED060A2D4A30EE200A10EE101AC1
:100F700080ED020A914203DB9FED290A80ED020A0F
:100F800010EE101A274A914203D39FED270A80EDF5
:100F9000020A90ED030A90ED041AD0ED021A20EE39
:100FA000200A224A01EE210A90ED071AD0ED051A17
:100FB00030EEC11A01EE810A10EE101A80ED080A17
:100FC000C0ED070A80ED090A914203DB9FED180A84
:100FD00080ED090A10EE101A164A914203D39FEDD4
:100FE000160A80ED090A032B11D110EE101A134ACC
:100FF000914203DB9FED120A80ED090A10EE101AF0
:10100000104A914203D39FED100A80ED090A10BDEA
:1010100066E633430000B44366E633C30050C3467C
:101020000050C3460050C3C60050C3C60060EA4625
:101030000060EA460060EAC60060EAC60000FA44C2
:101040000000FA440000FAC40000FAC490F820201E
:10105000012A07D0022A05D0416A41F48021416269
:1010600001207047006842690A43426100207047CE
:10107000F0B590F820500468A468012D05D0022D29
:1010800003D0416A41F480215DE014F0406F01D14A
:10109000E50055D5C4F30164022C03D9416A41F43B
:1010A000000150E00125A5401D608D684FF4C0731C
:1010B0009DB1CE6835434E6845EAC605066803EB28
:1010C0000417F5514FF4C275076805EB04150E6956
:1010D0007E51097D012905D009E00E88CD6845EAD9
:1010E0004655EBE701684E5946F480764E5111792A
:1010F000D579567941EA056195792D0445EA0625A9
:1011000029434FF4C676056806EB0416A9511178F9
:10111000D57841EA0561957852782D0445EA022296
:1011200011434FF4C475026805EB04155151006872
:1011300003EB0411425842F0010242500020F0BD7E
:10114000416A41F4001141620120F0BD10B590F8F0
:101150002020012A07D0022A05D0416A41F48021CB
:101160004162012010BD3B48D0F8002242F001024C
:10117000C0F80022D0F8002222F47C52C0F80022ED
:10118000D0F800224B6A42EA0322C0F800220A7D0E
:1011900002F01F0301229A40D0F81C329343C0F89A
:1011A0001C32CB69B3B9D0F80C329343C0F80C327F
:1011B0008C894B6864F31F434C6900EBC404C4F88A
:1011C00040320C890B6864F31F434C6900EBC40484
:1011D000C4F84432CB69012B16D1D0F80C3213433A
:1011E000C0F80C320C884B6864F31F434C6900EB69
:1011F000C404C4F840320C89CB6864F31F434C69C3
:1012000000EBC404C4F844328B69002BD0F80432DC
:101210000ED01343C0F804320B69002BD0F81432FF
:1012200008D01343C0F81432096A012904D008E039
:101230009343EFE79343F5E7D0F81C121143C0F84E
:101240001C12D0F8001221F00101C0F80012002099
:1012500010BD000000640040704730B590F8204099
:10126000012C05D0022C03D0416A41F480215DE0BD
:101270000468002955D02469A40754D04FF4D874C9
:10128000056804EB01142D5915F0040595600568F7
:101290002D594ED0ED08556005682C5904F0020414
:1012A000D4604FF4DA74056804EB01142D5905F08D
:1012B0000F05156105682D59C5F30725956105686A
:1012C0002C59240C54614FF4DC72046802EB0112B7
:1012D000A4581C700468A458240A5C700468A458BC
:1012E000240C9C700468A258120EDA704FF4DE725F
:1012F000046802EB0112A4581C710468A458240A63
:101300005C710468A458240C9C710468A258120EE5
:10131000DA71006881B1016941F0200101610020AA
:1013200030BDE468A8E7416A41F400114162012040
:1013300030BD6D0D1560AFE7C16841F02001C1609F
:10134000EDE72DE9F05F0546006800244669D0F816
:1013500004908768D0F80CB0D0F810A0D0F81880AE
:10136000F10748D0F90714D001218160B80703D5EF
:10137000284600F04AFB0CE0780702D54FF40064E1
:1013800007E0380702D54FF4805402E0284600F009
:101390003BFBF80516D529684FF480708860B805C6
:1013A00003D5284600F033FB0CE0780502D544F461
:1013B000005407E0380502D544F4804402E0284692
:1013C00000F024FBF80316D529684FF480308860BC
:1013D000B80303D5284600F01CFB0CE0780302D5C7
:1013E00044F4004407E0380302D544F4803402E0BA
:1013F000284600F00DFB300707D55FEACB6004D527
:101400002968102044F40074C86070074FF0080782
:1014100007D55FEA0B7004D52868C760284600F03E
:101420009BF9B00706D52868C068800702D0284617
:1014300000F094F9700607D55FEACA6004D5296800
:10144000102044F480640861B00607D55FEA0A7092
:1014500004D528680761284600F0A6FAF00606D5EC
:1014600028680069800702D0284600F09EFAB00381
:1014700008D55FEAC96005D529681020486028466C
:1014800000F094FAF00307D55FEA097004D52868E4
:101490004760284600F0BEFA300446D55FEA49703E
:1014A00040D5F00504D55FEAC87001D044F00104CE
:1014B000B00504D55FEA887001D544F002047005D8
:1014C00004D55FEA487001D544F00404300529D5FD
:1014D00018F0700F26D008F07000402815D006DCF8
:1014E000102809D020280AD0302816D10AE0502828
:1014F0000ED0602811D10EE044F008040DE044F055
:1015000010040AE044F0200407E044F0400404E042
:1015100044F0800401E044F480742868816921F07B
:1015200070018161296804204860002C05D0686A38
:10153000204368622846FFF78FFEBDE8F09F70B534
:10154000040003D094F8200010B104E0012070BD25
:10155000204600F081F82068016841F00101016037
:1015600000F024FD0546052604E000F01FFD401BA9
:101570000A2811D820684068C007F6D020680168A2
:1015800021F00201016000F011FD05460BE000F0C2
:101590000DFD401B0A2806D9606A40F400306062E5
:1015A00084F82060D2E7206840688007EFD4207E6E
:1015B0000128206801683DD021F080010160607E33
:1015C00001282068016838D021F040010160A07E28
:1015D00001282068016833D021F020010160E07EFD
:1015E0000128206801682ED041F010010160207FA1
:1015F00001282068016829D021F008010160607F7E
:1016000001282068016824D021F004010160D4E998
:1016100002010843D4E90412114308436168491EDA
:1016200008432168C86100206062012084F820001E
:10163000002070BD41F08001C0E741F04001C5E7E6
:1016400041F02001CAE721F01001CFE741F0080185
:10165000D4E741F00401D9E7F0B587B0044614217E
:101660006846FEF75FFF374B3748DFF8D4E019686C
:10167000D4F800C0344A022503260927103000247C
:10168000491CF44524D11960012907D1016841F0B2
:1016900000710160006800F000700590106840F073
:1016A00001001060106802AB00F0010005904FF4DB
:1016B000C050CDE9000583E8D0006946234800F01A
:1016C00077FB00220521142000F0FCFC142033E0FD
:1016D000DFF87CE0F44531D1D0F800C04CF0806CEC
:1016E000C0F800C0D0F800C001290CF0806CCDF823
:1016F00014C0196007D1016841F0007101600068F1
:1017000000F000700590106840F002001060106852
:1017100002AB00F0020005904FF44050CDE9000507
:1017200083E8D00069460B4800F042FB0022052107
:10173000402000F0C7FC402000F0B6FC07B0F0BD30
:10174000006400400C0100203038024000000240DC
:1017500000680040000402407047000030B50546B4
:1017600000688A4987B088423AD18A4A884B00216A
:10177000A2F15000FFF771FD8648854B864C00684A
:1017800003F10801B0F5017F47D008DCA0F5007037
:1017900001380FD0012824D0022821D12FE0A0F554
:1017A0000070053847D0022853D0A0F5806061381A
:1017B00016D16AE07748C83803F01BFE188840BA93
:1017C00000B200EE100AB8EEC00A84ED000A588894
:1017D00040BA00B200EE100AB8EEC00A84ED0E0A5C
:1017E00077E06C48B43803F004FE588840BA00B281
:1017F00000EE100AB8EEC00A84ED270A69E06548D9
:10180000A03803F0F6FD588840BA00B200EE100A86
:10181000B8EEC00A84ED400A5BE05E488C3803F005
:10182000E8FD588840BA00B200EE100AB8EEC00ACF
:1018300084ED590A4DE0594803F0B6FD188840BAC6
:1018400000B200EE100A5648B8EEC00A80ED000A59
:101850003FE052484E49283003F0CBFD188840BA8B
:1018600000B200EE100A4D48B8EEC00A2C3880EDE8
:10187000000A588840BA00B200EE100A4848B8EE94
:10188000C00A643880ED0E0A23E0188840BA00B21E
:1018900000EE100A4148B8EEC00A103880ED000A88
:1018A000598849BA09B200EE101AB8EEC00A80EDA4
:1018B000010A998849BA09B200EE101AB8EEC00AB6
:1018C00080ED020A997900EE101AB8EE400A80ED18
:1018D000030A3449286888421CD12D4B2D4808330F
:1018E0006A4600212838FFF7B8FC294B2C4C009899
:1018F0000833C834A0F50070013827D0012835D04E
:10190000052809D0FF2805D11888A3F1500140BA55
:1019100000B2486007B030BD1D4920481031143076
:1019200003F042FD1E48643090ED020A80ED030A88
:1019300090ED000A80ED020A198849BA09B200EE5A
:10194000101AB8EEC00A80ED000AE3E7104911480A
:101950000831783803F04DFD588840BA00B200EEE7
:10196000100AB8EEC00A84ED0E0AD3E70849094808
:101970000831643803F03DFD588840BA00B200EEEB
:10198000100AB8EEC00A84ED270AC3E700640040DD
:10199000540100204C0B002098060020480A00202B
:1019A0008C080020006800407047704770470000B6
:1019B00070B5044690F82000012804D0606A40F415
:1019C0000020606218E0022084F82000206801688E
:1019D00021F00101016000F0E9FA05460EE000BFC8
:1019E00000F0E4FA401B0A2808D9606A40F400308D
:1019F0006062052084F82000012070BD20684068E6
:101A0000C007EDD1606270BD704770477047704786
:101A10007047704770472DE9F0410446876D00F02C
:101A2000C5FA064694F835000025022806D0802025
:101A3000606584F834500120BDE8F08120680168B9
:101A400021F0160101602068416921F080014161A7
:101A5000206C08B9A06C20B12068016821F0080151
:101A600001602068016821F0010101600CE000F0D4
:101A70009DFA801B052807D920206065032084F883
:101A8000350084F83450D7E720680068C007EED1ED
:101A900094F85C103F208840B860012084F835003D
:101AA00084F834500020C7E790F83510022903D09D
:101AB0008021416501207047052180F835100068BC
:101AC000016821F001010160002070472DE9F84311
:101AD00004464FF00009CDF8009063484FF41651CA
:101AE000A56D0068B0FBF1F72E6894F85C10082033
:101AF00000FA01F131420FD021680A6852070BD574
:101B00000A6822F004020A6094F85C108840A86019
:101B1000606D40F00100606594F85C104FF00108C2
:101B200008FA01F0304208D021684969090604D555
:101B3000A860606D40F00200606594F85C100420BD
:101B40008840304208D021680968890704D5A86018
:101B5000606D40F00400606594F85C1010208840CF
:101B6000304218D021680968090714D5A860206898
:101B70000168490304D50068000308D5A16C07E09B
:101B80000168C90503D4016821F008010160216CD6
:101B900009B12046884794F85C10202088403042E4
:101BA00031D021680968C9062DD5A86094F83500A0
:101BB00005282068016806D0490347D5006800035E
:101BC0001DD4616C1CE021F01601016020684169A0
:101BD00021F080014161206C08B9A06C20B120681F
:101BE000016821F00801016094F85C103F208840F2
:101BF000A86084F8358084F83490216D1FE0E16B93
:101C000009B120468847606D00282BD0606DC00761
:101C100014D0052084F835002068016821F0010106
:101C200001600098401C0090B84203D8206800680A
:101C3000C007F6D184F8358084F83490E16C00292F
:101C400010D001B02046BDE8F04308470168C9053F
:101C5000D5D4016821F01001016084F8358084F842
:101C60003490CCE7BDE8F8837C0100202DE9F041F9
:101C7000044600F09BF906465CB1022084F835006A
:101C8000002584F834502068016821F001010160CA
:101C90000DE00120BDE8F08100F088F9801B0528E7
:101CA00005D920206065032084F83500F2E720681C
:101CB0000068C007F0D12268116820480140D4E9CB
:101CC00001031843D4E903363343184363691843C7
:101CD000A3691843E3691843236A18430843616AF8
:101CE000042903D1D4E90B13194308431060206879
:101CF0004069666A20F0070130460E430127042838
:101D00000CD1A06A0643E06A40B12046FEF79EFE71
:101D100020B14020606584F83570BAE720684661DC
:101D20002046FEF77FFE94F85C203F2191408160C1
:101D3000656584F835700020ACE700003F8010F046
:101D40002DE9F0410446866D90F834000025012805
:101D50000DD0012084F8340094F835700020012F54
:101D600007D084F8340002252846BDE8F08102201F
:101D7000FBE7022784F8357060652046FEF790FE89
:101D800094F85C103F208840B0602068016841F002
:101D900016010160206C20B12068016841F0080143
:101DA00001602068016841F001010160DCE700008A
:101DB0002DE9F84FDFF8BCA10022012503264FF0E2
:101DC0000F090AF1040BAAF1040E00BF0B6805FA13
:101DD00002F42340A34270D10F7907F00307012FCB
:101DE00001D0022F16D187684FEA420806FA08FC94
:101DF00027EA0C07D1F80CC00CFA08FC4CEA070CD7
:101E0000C0F808C04768A7430C79C4F30014944095
:101E10003C4344600C79E443A4070AD0C4684FEA09
:101E2000420C06FA0CF7BC438F6807FA0CF72743FD
:101E3000C7600C7904F00304022C12D1D40800EB23
:101E4000840CDCF820405707FF0E09FA07F824EA53
:101E50000804D1F8108008FA07F848EA0408CCF81A
:101E6000208004684FEA420C06FA0CF7BC430F7955
:101E700007F0030707FA0CF7274307604C6814F4D0
:101E8000403F70D03C4C276847F480472760246867
:101E900022F0030704F480440094384C07EB040C50
:101EA000DCF8084897074FEA177809FA08F7BC43A7
:101EB000334FB84202D1002724E054E0314FB842FA
:101EC00001D101271EE0304FB84201D1022719E0AD
:101ED0002E4FB84201D1032714E02D4FB84201D153
:101EE00004270FE02B4FB84201D105270AE02A4F03
:101EF000B84201D1062705E0284FB84201D1072793
:101F000000E0082707FA08F72743CCF80878DAF842
:101F100000405746D1F804C09C435FEACC2C00D562
:101F20001C433C60DBF800405F46D1F804C09C4392
:101F30005FEA8C2C00D51C433C60DEF800407746FD
:101F4000D1F804C09C435FEA8C3C00D51C433C6044
:101F5000084F083F3C68D1F804C09C435FEACC3C82
:101F600000D51C433C60521C102AFFF42FAFBDE883
:101F7000F88F0000083C0140443802400030014026
:101F8000000002400004024000080240000C024031
:101F9000001002400014024000180240001C0240E1
:101FA0000069084000D001207047000001488068A7
:101FB00070470000700100200248816802781144D7
:101FC00081607047700100200B4810B5016841F432
:101FD00000710160016841F480610160016841F4B1
:101FE00080710160032000F08DF80F2000F006F8EA
:101FF00000F03EF8002010BD003C024010B5014644
:1020000088B000222D2000F05DF82D2000F04CF863
:1020100013480024016841F480710160006805A93B
:1020200000F480700690684600F018F900F036F968
:102030000C494000B0FBF1F10C480B4A491E02600C
:1020400040F2E732C0E90324C0E9011400F0A2FB2A
:1020500010B1012008B010BD044800F0C9FBF9E739
:102060004038024040420F00002000408C10002009
:102070000C4882B0016841F480410160006800F4BE
:10208000804000900748001F016841F080510160C6
:102090000068002200F0805000900F21901E02B0D6
:1020A00000F010B844380240002809DB00F01F029D
:1020B000012191404009800000F1E020C0F80011AA
:1020C00070470000F0B40E4B1B680C46C3F30223AC
:1020D000C3F10705042D00D90425191D072901D2D4
:1020E000002300E0DB1E012606FA05F1491E21400F
:1020F00099409E40761E16403143F0BC02F0F5BD7B
:102100000CED00E0064900F0070208684FF6FF03F7
:10211000184040EA0220034A10430860704700005C
:102120000CED00E00000FA052DE9F0470E46050031
:1021300065D0DFF81481D8F80000F7B200F007008E
:10214000B04207D288F80070D8F8000000F007000D
:10215000B04254D128683D4C810712D5400703D5C1
:10216000206840F4E05020602878000703D52068FC
:1021700040F4604020602068A96820F0F000084327
:1021800020602878C0072DD03049686808390128B8
:1021900012D0022813D0032811D00968890700291A
:1021A0002DDA216821F0030101432160FFF7FEFED3
:1021B000814641F2883A0EE009688903EFE7096831
:1021C0008901ECE7FFF7F2FEA0EB0901514502D9C6
:1021D0000320BDE8F0872068696800F00C00B0EBD0
:1021E000810FEFD1D8F80010404601F00701B1424D
:1021F00007D90770006800F00700B04201D0012045
:10220000E7E72878400705D52068E96820F4E05022
:10221000084320602878000706D52068296920F443
:10222000604040EAC100206000F058F82168084A88
:10223000C1F30311515CC8400649086006480068B4
:10224000FFF7DCFE0020C4E7003C024008380240F3
:10225000186900087C010020740100200F22026030
:102260000C4A136803F003034360136803F0F003A0
:102270008360136803F4E053C36012684FF4E053C3
:1022800003EAD20202610448006800F00700086017
:102290007047000008380240003C024004480549ED
:1022A00000680968044AC1F38221515CC840704744
:1022B0007C010020083802402869000804480549CC
:1022C00000680968044AC1F34231515CC840704754
:1022D0007C0100200838024028690008154810B524
:1022E000006810F00C02144813D01449042A0FD0CF
:1022F000082A0ED10F4C241F2268236802F03F02E7
:102300005B0207D52068C0F38810A0FB010106E03E
:10231000084610BD2168C1F38811A1FB000100230C
:10232000FEF712F82168C1F30141491C4900B0FBD6
:10233000F1F010BD083802400024F40040787D011F
:102340002DE9F84F04006ED02078DFF84C93C007D9
:10235000A9F104054AD009F104000168C1F3810123
:10236000012908D00068C0F3810002280AD1D9F8F9
:102370000000400206D52868800337D56068002831
:10238000E1D033E06068B0F5803F10D0B0F5A02F09
:10239000286810D020F480302860286820F480203D
:1023A00028606068A8B1FFF701FE06460DE02868C6
:1023B00040F48030F4E740F480202860F7E700BF65
:1023C000FFF7F4FD801B642873D828688003F7D5D5
:1023D0000CE0FFF7EBFD064605E000BFFFF7E6FD6A
:1023E000801B6428F0D828688003F7D42078DFF8B1
:1023F000AC8280074FF0000A3ED5A748001D016857
:1024000011F00C0F08D00068C0F3810002280BD136
:10241000D9F80000400207D42868800716D5E06884
:10242000012800D112E033E1E068B8B10120C8F81A
:102430000000FFF7BBFD064605E000BFFFF7B6FD55
:10244000801B0228C0D828688007F7D52868216932
:1024500020F0F80040EAC10028600DE0C8F800A0B4
:10246000FFF7A4FD064604E0FFF7A0FD801B02284D
:102470001FD828688007F7D42078000722D5864F18
:1024800087486169703771B101210160FFF78EFDE6
:10249000064604E0FFF78AFD801B022809D8386849
:1024A0008007F7D50EE0C0F800A0FFF77FFD0646D5
:1024B00005E082E0FFF77AFD801B02287DD83868AE
:1024C0008007F7D42078400768D5DFF8CCB1002723
:1024D0000BF13C0BDBF80000C0000BD4DBF8001064
:1024E00041F08051CBF80010DBF80000012700F02C
:1024F000805000906B4E3068C00510D4306840F4B6
:1025000080703060FFF752FD009005E0FFF74EFD50
:102510000099401A022850D83068C005F6D55E4EA2
:10252000A0686C3601280FD00528306810D020F044
:1025300001003060306820F004003060A068B8B15D
:10254000FFF734FD00900FE0306840F00100F4E741
:1025500040F004003060F7E7FFF728FD0099411ACA
:1025600041F28830814266D830688007F4D50EE0A9
:10257000FFF71CFD009007E0FFF718FD0099411AD6
:1025800041F28830814256D830688007F4D42FB1A8
:10259000DBF8001021F08051CBF80010A069C8B31F
:1025A0003D49091D0968C1F3810102294AD0022869
:1025B000504607D0C8F8600000E03CE0FFF7F6FCAA
:1025C00004463BE04746C8F86000FFF7EFFC0646CC
:1025D00005E000BFFFF7EAFC801B02282BD8286823
:1025E0008001F7D4D4E907010843A16A2E4A4908BB
:1025F00002EB0141626A41EA8211084394F82C100F
:1026000040EA0161C9F8001001203866FFF7CEFCEE
:10261000044606E03EE000BFFFF7C8FC001B0228AE
:1026200009D828688001F7D534E000BFFFF7BEFC69
:10263000001B022802D90320BDE8F88F286880011A
:10264000F4D427E00128F7D0D9F80000E26900F4BB
:10265000800191421CD1226A00F03F01914217D1C2
:1026600047F6C071626A0140B1EB821F10D1A26AC5
:102670004FF0FF3300F4403103EB5202B1EB024F55
:1026800006D194F82C1000F07060B0EB016F01D00F
:102690000120D1E70020CFE7043802400000474284
:1026A000800E4742007000400000FFFF70477047F7
:1026B00010B590F83C20012A22D0012280F83C205D
:1026C000CA688C6822F4407222434C6822F480620B
:1026D00022430C6822F4006222430C6922F48052E7
:1026E00022434C6922F400522243C969002322F498
:1026F00080420A4301684A6480F83C30002010BDE3
:10270000022010BD70B590F83C20012A32D001247F
:1027100080F83C40022280F83D2003685A689D689A
:1027200022F070060A6832435A60134B02689A42DC
:1027300014D0B2F1804F11D0104B9A420ED0104BF2
:102740009A420BD00F4B9A4208D00F4B9A4205D0B9
:102750000E4B9A4202D00E4B9A4204D1496825F0A2
:1027600080031943916080F83D40002180F83C10BF
:10277000084670BD022070BD00000140000400400A
:1027800000080040000C00400004014000400140EF
:102790000018004010B5040003D094F83D0010B1BB
:1027A00007E0012010BD002084F83C00204600F026
:1027B0001EF8022084F83D00211D206801F0C6FEAD
:1027C000012084F8460084F83E0084F83F0084F835
:1027D000400084F8410084F8420084F8430084F803
:1027E000440084F8450084F83D00002010BD704787
:1027F00090F83D10012901D001207047022180F896
:102800003D100168CA6842F00102CA6000681149BF
:10281000884214D0B0F1804F11D00F4988420ED0B9
:102820000E4988420BD00E49884208D00D49884293
:1028300005D00D49884202D00C49884204D18168F4
:1028400001F00701062903D0016841F00101016090
:1028500000207047000001400004004000080040D4
:10286000000C0040000401400040014000180040FE
:10287000704770B50446006801694FF00005C94310
:10288000890715D4C168C943890711D4E91E0161BC
:1028900001202077206880698007204602D0FFF75A
:1028A000E7FF04E000F0C2F8204600F071F9257758
:1028B00020680169C943490717D4C168C94349075A
:1028C00013D46FF004010161022020772068806931
:1028D00010F4407F204602D0FFF7CAFF04E000F06A
:1028E000A5F8204600F054F9257720680169C9430E
:1028F000090716D4C168C943090712D46FF008014B
:102900000161042020772068C0698007204602D03A
:10291000FFF7AEFF04E000F089F8204600F038F938
:10292000257720680169C943C90617D4C168C9431E
:10293000C90613D46FF010010161082020772068C8
:10294000C06910F4407F204602D0FFF791FF04E0F9
:1029500000F06CF8204600F01BF92577206801692B
:10296000C943C90708D1C168C943C90704D1891E31
:102970000161204600F072F920680169C943090627
:1029800009D4C168C943090605D46FF0800101610B
:102990002046FFF78BFE20680169C943490609D428
:1029A000C168C943490605D46FF040010161204662
:1029B00000F05EF920680169C94389060BD4C1683B
:1029C000C943890607D46FF0200101612046BDE8A4
:1029D0007040FFF76CBE70BD10B586B00446142180
:1029E0006846FDF79FFD0E492068884216D10D48C4
:1029F0000021026842F004020260006800F0040056
:102A000005904FF4807000900220CDE90101032071
:102A1000CDE9031069460448FFF7CAF906B010BDB6
:102A2000000401403038024000080240704770B591
:102A3000044690F83C0000260D4601280FD00120E6
:102A400084F83C006AB1042A1DD0082A2FD00C2A31
:102A50003FD00126002084F83C00304670BD0220A3
:102A600070BD206801F0E4FD2068816941F0080133
:102A700081612068816921F0040181612068816998
:102A80002A69114311E0206801F002FE2068816983
:102A900041F4006181612068816921F48061816174
:102AA000206881692A6941EA02218161D2E72068B0
:102AB00001F024FE2068C16941F00801C16120686D
:102AC000C16921F00401C1612068C1692A6911430B
:102AD00011E0206801F046FE2068C16941F4006100
:102AE000C1612068C16921F48061C1612068C16948
:102AF0002A6941EA0221C161ACE710B5040003D0A4
:102B000094F83D0010B107E0012010BD002084F8CA
:102B10003C00204600F01EF8022084F83D00211DF4
:102B2000206801F013FD012084F8460084F83E007F
:102B300084F83F0084F8400084F8410084F84200A3
:102B400084F8430084F8440084F8450084F83D008C
:102B5000002010BD08B500680B49884212D10B480F
:102B6000016841F0020101600068002200F00200EB
:102B700000900F212D20FFF7A5FABDE808402D2079
:102B8000FFF792BA08BD000000040140443802403B
:102B90007047000010B50446022249B104290ED046
:102BA000082913D094F84100012816D0012010BD47
:102BB00094F83E000128F9D184F83E200FE094F803
:102BC0003F000128F2D184F83F2008E094F840004B
:102BD0000128EBD184F8402001E084F84120012253
:102BE000206801F017FD16492068164A884201D076
:102BF000904203D1436C43F400434364206888420D
:102C000013D0B0F1804F10D00F4988420DD00F493A
:102C100088420AD00E49884207D0904205D00D491B
:102C2000884202D00C49884204D1816801F0070132
:102C3000062903D0016841F001010160002010BDA8
:102C40000000014000040140000400400008004072
:102C5000000C00400040014000180040006803499B
:102C6000884201D1FFF7A8B970470000002000405A
:102C70007047704710B504460068406994F83D10ED
:102C8000C0F3C010212911D180B12068143050E860
:102C9000001F21F0800140E80012002AF5D1606B8E
:102CA00008B1FEF7B8FE204601F03EFE20684069FC
:102CB00094F83E10C0F38010222911D180B1206811
:102CC000143050E8001F21F0400140E80012002AB3
:102CD000F5D1A06B08B1FEF79EFE204601F0FDFD88
:102CE000002010BD70470000F8B501680446086870
:102CF000CA684B6910F00F0F4FF0000559D003F070
:102D0000010602F49077374365D0C10705D0D1059D
:102D100003D5216C41F001012164410705D5D90794
:102D200003D0216C41F002012164810705D5D90748
:102D300003D0216C41F004012164010707D502F0A2
:102D40002001314303D0216C41F008012164216C42
:102D500000293AD0800604D5900602D5204601F01D
:102D600011FE20684069216CC0F38010090700D46F
:102D700060B3204601F0B1FD20684069400621D5CE
:102D80002068143050E8001F21F0400140E8001294
:102D9000002AF5D1A06BA8B16C490165A06BFEF7C4
:102DA00083FE002811D0A06B016D01B0BDE8F0409A
:102DB000084783060FD593060DD52046BDE8F84099
:102DC00001F0E0BD2046FFF78DFFF8BD2046FFF77C
:102DD00089FF2564F8BD266B2023012E79D1C60614
:102DE00077D5D60675D508684868009048694006CA
:102DF00040D5A16B086840680004000CEAD0A28DA1
:102E00008242E7D9E085C869B0F5807F2DD020687F
:102E10000C3050E8001F21F4807140E80012002AB5
:102E2000F5D12068143050E8001F21F0010140E87E
:102E30000012002AF5D12068143050E8001F21F05C
:102E4000400140E80012002AF5D184F83E302563A5
:102E500020680C3050E8001F21F0100140E80012FB
:102E6000002AF5D1A06BFEF7D6FDA08DE18D401AAA
:102E700081B229E0A08DE18D401A81B2E08D002859
:102E8000A8D00029A6D020680C3050E8002F22F4EA
:102E9000907240E80026002EF5D12068143050E8EA
:102EA000002F22F0010240E80026002EF5D184F820
:102EB0003E30256320680C3050E8002F22F01002CD
:102EC00040E80023002BF5D12046FFF7D2FEF8BDE5
:102ED000FFE705062BD5150629D594F83D002128D6
:102EE000F5D1A068B0F5805F01D12069B0B1206A4A
:102EF000411C2162216800784860E08C401E00047B
:102F0000000CE084E3D12068C16821F08001C16039
:102F10002068C16841F04001C160D8E7206A00889C
:102F2000C0F308004860206A801C2062E5E7400684
:102F3000CDD55006CBD5CA68204622F04002CA60E3
:102F400084F83D3000F077FAC1E70000E54700085B
:102F500070B5040004D094F83D00002510B106E0DF
:102F6000012070BD84F83C50204600F023F8242056
:102F700084F83D002068C16821F40051C1602046FA
:102F800001F060FD2068016921F490410161206831
:102F9000416921F02A0141612068C16841F4005172
:102FA000C1602564202084F83D0084F83E000020A4
:102FB00070BD00002DE9F04F87B00546142168462A
:102FC000FDF7B0FAB248DFF8C48210380222D5F813
:102FD00000C00024AE4B0321DFF8B8E296060715C7
:102FE0004FF4807B4FF44039C4453CD1D3F800C046
:102FF0004CF4002CC3F800C01B6803F400230593B5
:10300000036843F001030360006800F001000590CD
:103010008DE816000820CDE9031069467046FEF7DA
:10302000C7FEDFF878829C494046C8F80010C0E926
:103030000164C0E90347C8F82090C8F81440C8E903
:10304000064BC8F82440FEF711FE08B1FDF7B8FDA5
:10305000C5F83880002208213420C8F83850FFF71E
:1030600031F834205DE0DFF83882C4455ED1D3F812
:1030700000C04CF4801CC3F800C01B6803F480132C
:103080000593036843F004030360036803F004033B
:103090000593036843F00803036000688A4600F064
:1030A000080005904FF4805000904FF0080801AAE6
:1030B0000220CDF8108082E8110469467948FEF7B5
:1030C00077FE0420009001AA0220CDF8108082E84B
:1030D000110469467448FEF76BFEDFF8C0816E4943
:1030E00008F1600830394046C8F80010C0E90164B2
:1030F000C0E90347C8F82090C8F81440C8E9064B57
:10310000C8F82440FEF7B2FD08B1FDF759FDC5F837
:103110003880002205213520C8F83850FEF7D2FF4C
:103120003520FEF7C1FF07B0BDE8F08FDFF87C81E6
:103130004FF0070AC44543D1554B1B1DD3F800C0BF
:103140004CF0100CC3F800C01B6803F0100305938B
:10315000036843F0010303600068CDE9024100F019
:10316000010005904FF4C060CDE90002CDF810A039
:1031700069467046FEF71CFEDFF820814C4908F1D5
:10318000C0084046C8F80010C0E90164C0E9034720
:10319000C8F82090C8F81440C8E9064BC8F8244085
:1031A000FEF764FD08B1FDF70BFDC5F8388000227D
:1031B00007212520C8F83850FEF784FF2520B0E706
:1031C000DFF8F080C44540D1D3F800C04CF4003C97
:1031D000C3F800C01B6803F400330593036843F091
:1031E0000103036000680DF1080800F0010005907C
:1031F0000C20CDE90002012088E8030469467046EE
:10320000FEF7D6FD2449DFF8B08048314046C8F8C3
:103210000010C0E90164C0E90347C8F81440C8F8C9
:103220001840C8E90749C8F82440FEF71FFD08B157
:10323000FDF7C6FCC5F83880002207212620C8F813
:103240003850FEF73FFF26206BE71C4DAC457FF45E
:103250006AAF1D6845F480251D601B6803F4802358
:103260000593036843F0020303600068CDE902415F
:1032700000F0020005904FF44060CDE90002CDF867
:1032800010A069460E48FEF793FD4CE7004C004045
:103290004038024000000240406002400C0F002015
:1032A0000050004000080240000C024000100140A5
:1032B00040640240004400402C10002000480040C0
:1032C0000004024090F83E30202B0ED159B152B18B
:1032D00090F83C30012B08D0012380F83C300023CB
:1032E000036301F035BC01207047022070470000E5
:1032F00070B5054600681B4988420AD11A4801F09A
:103300000BF80020FDF7E2FB122217491748FFF7E0
:10331000D9FF17492868174C884211D12068401CF2
:103320002060052801DB052020601348407800F06C
:1033300067FC11490D480122491C8838FFF7C2FF7C
:103340000E49286888420BD120680B49401C206038
:10335000BDE8704005480122491CCC38FFF7B2BFD8
:1033600070BD00000044004014020020840E0020C4
:10337000005000400801002064010020004C004083
:10338000704700002DE9F843044690F83D001F46C1
:1033900016460D4620284CD1C5B1BEB194F83C006C
:1033A000012846D0012084F83C004FF00008C4F802
:1033B0004080212084F83D00FEF7F8FDA684814678
:1033C000E684A068B0F5805F03D004E00120BDE88A
:1033D000F883206928B12E465FF0000584F83C8010
:1033E0000EE00026FAE78021204601F0FBFBA0B9A1
:1033F000AEB116F8010B21684860E08C401EE084F5
:10340000E08C4B464FF0000200970028EBD14FF0C4
:103410004001204601F0E6FB30B10320D7E735F844
:10342000020BC0F30800E6E7202084F83D000020EE
:10343000CDE70220CBE77047FEE790ED070AD0ED1D
:103440000E0AB0EE002A42F2107230EE600A80EDF1
:10345000140A90ED131AD0ED0F1A70EE410A60EEC7
:10346000A10AD0ED101A41EE800AF0EE401A41EEAA
:10347000421A90ED122A71EE821A90ED112A42EE54
:10348000210AC0ED180A80ED121A80ED130AB0F976
:103490005C1000EE101AB8EEC00A30EE200ABDEE45
:1034A000C00A10EE101A09B2A0F85C10914202DABC
:1034B0005242914201DCA0F85C20704730B50C4DBF
:1034C0000C4A00204FF07E54B7EE000AFFEE000ACF
:1034D00002EB80010B68A34201DB81ED000A0B685F
:1034E000AB4201D3C1ED000A401C0228F0DB30BD25
:1034F000000080BF1C000020D0ED071AD0ED000AAC
:1035000021EEA01A80ED011AD0ED080A90ED052AEF
:1035100041EE820AC0ED030AD0ED091A30EEA12A6D
:10352000C0EE821A30EE412AB0EE410AB7EE001A20
:10353000C0ED061A31EE611A01EE820A61EE200A30
:1035400080ED020AC0ED040AC0ED050A80ED000A14
:1035500070470000104810B50E490160032141601A
:1035600000214FF400228160C0E903124FF44012A1
:1035700042610176012242768276C17601774177F7
:10358000FDF7DDFF002803D0BDE81040FDF718BBB4
:1035900010BD000000640040FC0A0020104810B577
:1035A0000E4901600321416000214FF40022816037
:1035B000C0E903124FF440124261017601224276C3
:1035C0008276C27601774177FDF7B9FF002803D0F4
:1035D000BDE81040FDF7F4BA10BD000000680040DF
:1035E000240B0020194808B5016841F4001101605E
:1035F000016801F400110091016841F4800101604B
:103600000068002200F48000009005210B20FEF7E6
:1036100059FD0B20FEF748FD002205210D20FEF785
:1036200051FD0D20FEF740FD002205211020FEF780
:1036300049FD1020FEF738FD002205213A20FEF753
:1036400041FDBDE808403A20FEF72EBD303802406B
:1036500010B5B2B01C2227496846FCF731FF0021A3
:10366000684602F086F8244C22491C22E0611C3195
:1036700007A8FCF725FF002107A802F07AF81D49EA
:1036800020621C2238310EA8FCF71AFF00210EA878
:1036900002F06FF8174960621C22543115A8FCF73C
:1036A0000FFF002115A802F064F81249A0621C2245
:1036B00070311CA8FCF704FF00211CA802F059F887
:1036C0000C49E0621C228C3123A8FCF7F9FE002192
:1036D00023A802F04EF8074920631C22A8312AA82B
:1036E000FCF7EEFE00212AA802F043F8606332B036
:1036F00010BD00004C680008D000002000B587B065
:1037000014216846FCF70EFF19480021026842F0B8
:1037100080020260026802F080020592026842F0B4
:1037200001020260026802F001020592026842F0A2
:1037300002020260026802F002020592026842F090
:1037400004020260026802F004020592026842F07C
:10375000080202600068029100F008000590C02095
:10376000CDE9000169460348FEF722FB07B000BD22
:10377000303802400008024010B592B000240F9487
:103780001C2108A81094FCF7CDFE20216846FCF708
:10379000C9FE224820490160A721C0E9011444F66E
:1037A0001F61C0E90314FA21416180218161FFF7A3
:1037B000A4F908B1FDF704FA0F940FA91748109463
:1037C000FEF7A0FF08B1FDF7FBF96020089040F676
:1037D0002410CDE909040B940C940D94082208A937
:1037E0000E480E94FFF723F908B1FDF7E9F90094AC
:1037F0004FF40050CDE904400294019403946946CB
:1038000006480794FEF754FF08B1FDF7D9F90348BD
:10381000FFF7E2F812B010BD00040140700C002068
:103820000C4810B50A4901604FF4E13141600021B4
:1038300081600C22C160C0E904128161C161FFF79F
:1038400087FB002803D0BDE81040FDF7B9B910BDD3
:10385000004C0040B80D00200C4810B50A4901602A
:103860004FF461214160002181600C22C160C0E9F8
:1038700004128161C161FFF76BFB002803D0BDE832
:103880001040FDF79DB910BD00500040FC0D002018
:103890000C4810B50A4901604FF4E1314160002144
:1038A00081600C22C160C0E904128161C161FFF72F
:1038B0004FFB002803D0BDE81040FDF781B910BDD3
:1038C00000100140400E00200E4810B50C49016068
:1038D0000D4941604FF48051816000214FF48062B6
:1038E000C0E903120C22C0E90521C161FFF730FBDA
:1038F000002803D0BDE81040FDF762B910BD0000FC
:1039000000440040840E0020A08601000C4810B541
:103910000A4901604FF4E1314160002181600C22CD
:10392000C160C0E904128161C161FFF711FB002889
:1039300003D0BDE81040FDF743B910BD004800407A
:10394000C80E0020FEE7FEE74C480168491C0160F4
:103950004B48007803287CD100204A4B02469FED5B
:103960004A0A00BF00EBC00101EB001103EB81012B
:10397000401C81ED070AA1F85C2081ED180A81ED59
:10398000140A81ED130A40B281ED120A0428E9DB22
:103990003E48454B002180ED090A80ED020A80ED8A
:1039A000080A80ED060A80ED070A394880ED090A09
:1039B00080ED000A80ED020A80ED080A80ED060A1B
:1039C00080ED070A3348A0F85C2080ED0E0A80EDF8
:1039D000070A80ED180A80ED130A80ED120A2E48BE
:1039E00080ED090A80ED000A80ED020A80ED080AE8
:1039F00080ED060A80ED070A284880ED090A80ED6F
:103A0000000A80ED020A80ED080A80ED060A80EDCA
:103A1000070A234880ED090A80ED000A80ED020ABA
:103A200080ED080A80ED060A80ED070A1D4880ED4A
:103A3000090A80ED020A80ED070A80ED080A80ED90
:103A4000000A80ED060A00BF01EBC10000EB011087
:103A500000E011E003EB8000491C80ED150AA0F89E
:103A60005C2080ED080A80ED160A80ED140A49B248
:103A700080ED130A0229E7DB704700006C0000208C
:103A8000000000209806002000000000440C0020E8
:103A9000180C002028080020EC0B0020C00B002090
:103AA000940B0020680B0020540900202DE9F04100
:103AB0000024051D494EB0F8847027E0285DC02819
:103AC0003BD012DCA52829D008DC902822D0A028E1
:103AD00024D0A12822D0A22817D11FE0B02824D0BA
:103AE000B12822D0B22810D11FE0D1286BD006DC3B
:103AF000C12822D0C22820D0D02806D124E0D9283D
:103B000055D0E02868D0F02866D0641CA742D5DCE8
:103B1000BDE8F08168783070A41CF7E7281950F8E8
:103B2000011FB1608088B0813FE0281950F8011F63
:103B3000C6F80E108088708237E0281950F8011FEF
:103B400071618088308330E02819DFED250A4178E3
:103B5000827801EB022109B200EE101A2149B8EE79
:103B6000C01A81EE200A81ED000AC2780379BDEE09
:103B7000C00A02EB032212B201EE102AB8EEC11AFB
:103B8000C1EE201AF2EE040AC1ED011A86ED010A17
:103B90004279807902EB002000B200EE100AB8EE04
:103BA000C00A80EE201A81ED021AE41DAEE70D482E
:103BB00029190C3851F8012FC2604A6802618968DE
:103BC0000D344161A2E70748291910220C30491C25
:103BD000FCF731FC113499E7641D97E724000020BD
:103BE0000000C842C402002000B502F081FA01F0D2
:103BF0005BFBFDF7E3F85DF804EB01F091BB00001F
:103C00002DE9F041384C014620462778D0E90320C1
:103C10000623A61D0025072F62D2DFE807F004085F
:103C20001A1F272A31005A295BD1012009E080F8A8
:103C30008810A52904D0A62905D0A72951D105E0CF
:103C4000022020704DE0EAB3904749E00560237000
:103C500047E0A0F88410B1700320F2E730F8842F19
:103C600042EA01220280F1700420EAE76180052027
:103C7000E7E7628842EA012161800560A580E6E706
:103C80000368061D5F1C0760995590F88810A729E6
:103C900007D10168082904D30821A0F884109047AF
:103CA00025702069B0F884200168914219D390F8FA
:103CB0008800A52815D10C490422891D881E01F011
:103CC0007FFA00E00CE02169074804C9001D01F0FB
:103CD00077FAA0886188884202D1D4E90310884726
:103CE00025700020BDE8F0814000002070B5044D33
:103CF0000446E9608C21FCF715FC2C6170BD0000C6
:103D000040000020002801DC404200B27047000063
:103D100070B5184CB4F90000FFF7F4FF4FF4FA55F2
:103D2000A84217DCB4F90200FFF7ECFFA84211DC4F
:103D3000B4F90400FFF7E6FFA8420BDCB4F9060073
:103D4000FFF7E0FFA84205DC207A18B1607A08B1DD
:103D5000002070BD002020806080A080E0800321D2
:103D6000217261726081A081E08120746074608240
:103D7000012070BDE8010020012080F31388BFF30B
:103D80004F8F05480168054A01F4E0611143016065
:103D9000BFF34F8F00BFFDE70CED00E00400FA0514
:103DA0002DE9F043AB4E0020DFF8AC923178DFED27
:103DB000AB1AAB4D012913D002297DD13081F0809F
:103DC0009FEDA82A284629880089A74FDFF89C8202
:103DD0009FEDA71A06F11C04012928D0E1B341E0A8
:103DE00028829F496882E8821439A882B1F90200CA
:103DF00000EE100AB8EEC01ADFED9E0A81EE200A2E
:103E000020EE210ABDEEC00A10EE100AF080B1F9D2
:103E1000000000EE100AB8EEC00A80EE201A21EE73
:103E2000210ABDEEC00A10EE100A3081F2E094EDD6
:103E3000000A012830EE010A84ED000A12D130EEAA
:103E4000410A10EE100A84ED000AB8420ADA10EEB8
:103E5000100A404506D200E002E084ED002A01E0AD
:103E60000028F8D0FFF72AFB94ED000A60EE210A43
:103E7000FDEEE00A10EE900A28822889DFED7E2A06
:103E8000012806D130EE410A84ED000A2988012973
:103E900002D02988F9B121E0B5EEC00AF1EE10FA9E
:103EA00003DD30EE410A84ED000A10EE100AB8423C
:103EB00005DA404503D200E0AAE084ED002A94ED43
:103EC000000AB5EEC00AF1EE10FA07D230EE220A6F
:103ED00084ED000A02E008B984ED002AFFF7EEFA4B
:103EE00094ED000AB5F9101020EE210ABDEEC00ACB
:103EF00010EE100A01FA80F028826889012808D1A2
:103F000094ED010A30EE010A84ED010AE9880129E5
:103F100002D0E98879B110E030EE410A10EE100AC3
:103F200084ED010AB84208DA10EE100A404504D2C6
:103F300084ED012A01E00028FAD0FFF7BFFA94EDE2
:103F4000010AB5F9121060EE210AFDEEE00A10EE4A
:103F5000900A01FA80F06882E888012806D130EEE4
:103F6000410A84ED010A6989012902D06989E9B110
:103F70001FE0B5EEC00AF1EE10FA03DD30EE410AA3
:103F800084ED010A10EE100AB84203DA404501D26E
:103F900084ED012A94ED010AB5EEC00AF1EE10FAA3
:103FA00007D230EE220A84ED010A02E008B984ED5E
:103FB000012AFFF783FA94ED010A20EE210ABDEEF3
:103FC000C00A10EE100A02B26A823078012821D0AD
:103FD00002281DD1B5F91000811A00EE101A13182D
:103FE0005C42B8EEC00A101A89ED070A00EE104ACA
:103FF000B8EEC00A89ED200A00EE100AB8EEC00A39
:1040000089ED390A00EE103AB8EEC00A89ED520A7D
:10401000BDE8F0837078B6F90830B6F906200228BA
:10402000F6D0D01A00EE100A99184C42B8EEC00A29
:104030009A1A89ED070A00EE104AB8EEC00A89ED17
:10404000200A00EE102AB8EEC00A89ED390A00EE07
:10405000101AD9E7000000209806002000C0DA45B9
:10406000FC01002000000000CDCCCC3DCDCCCCBD6F
:104070006F12833A000025446F12033B2DE9F04F85
:10408000714DDFF8C8912DED028B97B02878032889
:1040900078D06F4FDFF8BC81DFF8BCA19FED6F8A4D
:1040A000DFF8BCB16F4C012874D002286DD1DFED70
:1040B0006E8AF0EE680A9FED6D0A684601F06EFAAE
:1040C000F0EE680A9FED6A0A0BA801F067FAB7F9EB
:1040D0000A0000EE100A6846B8EEC00AFFF70CFAB4
:1040E000BDEEC00A10EE100A06B2B7F90C0000EEE1
:1040F000100A0BA8B8EEC00AFFF7FEF9BDEEC00A21
:1041000010EE100A07B2304602F069FA9FED591B13
:1041100053EC112B02F07AFA02F032FA06B238466A
:1041200002F05DFA9FED551B53EC112B02F06EFA75
:1041300002F026FA01B2704201EE100A94ED000A74
:10414000D5ED030AB8EEC11A494201EE901A00EE0D
:10415000810AF8EEE11A84ED000A98ED001A00EEEB
:10416000A11A88ED001A00BF10EE100A504568DC55
:1041700010EE100A584508D930EE080A5EE001E05A
:1041800008E002E00021C9F8001017B0BDEC028B76
:10419000BDE8F08FB7F90660AE80B7F904004FF4C0
:1041A0002F7200F1640153426880C82903D99042FC
:1041B00001DC984200DA002006F16401C82903D925
:1041C000964201DC9E4200DA002602F008FA9FEDDA
:1041D0002D1B53EC112B02F019FA02F0D1F907B2A2
:1041E000304602F0FCF99FED291B53EC112B02F035
:1041F0000DFA02F0C5F9D9F8001000B2012902D079
:1042000094ED000A04E0234991ED020A84ED000ACE
:10421000794201EE101AD5ED030AB8EEC11A00EE8C
:10422000810A01EE100AB8EEC11A84ED000AD8ED39
:10423000001A40EE811AC8ED001A95E784ED000AD5
:10424000A3E730EE480AF9E700000020080100204B
:10425000E8010020EC0B002066E633430000B44385
:1042600066E633C3C00B0020000096430000C8423E
:10427000000048439A9999999999D93F9A9999999F
:104280009999C93FB81E85EB51B89E3FFA7E6ABC2A
:104290007493783FE002002070B540211848FDF784
:1042A0007FFE1849184A0225486115604C780023A2
:1042B0009FED160A164A012C03D0032C14D10B6172
:1042C0000FE00C69DFED130A641C0C61012C0CD0AB
:1042D0008C69012C0BD0022C06D101280DD00028AE
:1042E00002D182ED070A8B6170BD01238B6120B181
:1042F0000128F9D182ED070A8D61C2ED070A70BD70
:1043000000080240000000206000002000000000C3
:10431000280800200000FA442DE9FC4100287DD047
:1043200001884C4CC1F30A01A1F580612180002273
:10433000091D092900D2228041788378C90841EA01
:104340004311C1F30A01A1F580616180091D0929AA
:1043500000D262808178C378890941EA83010379B8
:1043600041EA8321C1F30A01A1F58061A180091D01
:10437000092900D2A28001794379490841EAC31191
:10438000C1F30A01A1F58061E180091D092900D26C
:10439000E2804179304F8D09257241794FF6FF76E1
:1043A000C1F301116172C28862810289A2814289CE
:1043B000E281027B2274437B6374807B254B6082A5
:1043C0003D7006EAC03C143379704FEADC3CA3F838
:1043D00000C006EA803C4FEADC3CA3F808C006EACD
:1043E000003C4FEADC3CA3F80AC006EA403C4FEA36
:1043F000DC3CA3F806C006EA402C4FEADC3CA3F8FC
:1044000002C04FEAD01CA3F804C006EAC02C4FEA51
:10441000DC3CA3F80CC006EA802000E018E0C00BEA
:10442000D881B4F90230B4F90000CDE90003B88AAC
:1044300003B22846FCF740F9B4F906000090B4F93D
:104440000430B4F90A20B4F91210607CFCF710F9BA
:10445000BDE8FC81E80100200000002010B55020DC
:1044600080F31188BFF34F8FBFF36F8F01F086FF8A
:1044700018B104494FF080500860002080F3118883
:1044800010BD000004ED00E030B593B03021684667
:10449000FCF748F814210CA8FCF744F81E48002546
:1044A000016841F080510160006800F08050119077
:1044B0001A48016841F4804101600068022400F458
:1044C0008040119001200090000401908001CDE90E
:1044D0000640192008904FF4A870CDE90904042083
:1044E0000B906846FDF72CFF08B172B6FEE70CA9E9
:1044F0000F2081E831004FF4A0500F904FF480500E
:10450000109005210CA8FDF70FFE002801D072B60F
:10451000FEE713B030BD000040380240007000409C
:104520000248016841F470010160704788ED00E0C5
:1045300010B50448FEF79DF9BDE810400248FEF7AB
:1045400098B90000700C00208C100020F0B50268B3
:10455000254C264D264E274F274B4FF0804CA0422E
:1045600009D0604507D0A84205D0B04203D0B84278
:1045700001D0984204D122F0700E4A6842EA0E023D
:10458000A0421BD0604519D0A84217D0B04215D028
:10459000B84213D0984211D0184DA8420ED0184DF1
:1045A000A8420BD0174DA84208D0174DA84205D0FD
:1045B000164DA84202D0164DA84203D122F44075F0
:1045C000CA682A434D6922F080022A4302608A6841
:1045D000C2620A688262A04201D0984201D1096990
:1045E000016301214161F0BD000001400004004071
:1045F00000080040000C0040000401400040014061
:10460000004401400048014000180040001C0040E8
:104610000020004010B501F01F030121046A9940F9
:104620008C430462016A9A401143016210BD00008C
:10463000F0B5026A22F001020262036A42688469EC
:10464000124E24F073050C682C4323F002058B688E
:104650002B430D4DA84201D0B04205D123F00807ED
:10466000CB683B4323F00403A84201D0B04205D1FC
:104670004D6922F4407215438A692A43426084617D
:10468000496841630362F0BD00000140000401403D
:10469000F0B5026A22F010020262026A436884697D
:1046A0000D6824F4E64444EA05248D6822F02002D3
:1046B00042EA05120F4D104EA84201D0B04206D179
:1046C000CF6822F0800242EA071222F04002A8429C
:1046D00001D0B04207D14D6923F4406343EA85031A
:1046E0008D6943EA8503436084614968816302629E
:1046F000F0BD00000000014000040140F0B5026A76
:1047000022F480720262026A4368C46922F4007271
:1047100024F073050C68124E2C438D6842EA052282
:104720000E4DA84201D0B04206D1CF6822F40062FB
:1047300042EA072222F48062A84201D0B04207D1A7
:104740004D6923F4405343EA05138D6943EA051389
:104750004360C4614968C1630262F0BD000001406A
:104760000004014030B5026A22F480520262046AF9
:104770004268C3690D6823F4E64343EA05238D6864
:1047800024F4005444EA0534084DA84202D0084DF0
:10479000A84204D14D6922F4804242EA8512426067
:1047A000C36149680164046230BD0000000001403B
:1047B00000040140074810B500680068C043C00607
:1047C00002D4044800F0BEF8BDE810400148FEF7EE
:1047D0008BBA0000B80D00200148FEF785BA000032
:1047E000FC0D002010B5806B0021C185C184FEF74F
:1047F00079FA10BD70B5846B2068406994F83D105B
:10480000C0F3C0100025212904D118B1E584204649
:1048100000F08AF82068406994F83E10C0F38010D8
:10482000222904D118B1E585204600F056F8206C05
:1048300040F0100020642046FEF754FA70BD10B519
:104840000146806B09680968C9052FD40021C1851C
:1048500001680C3151E8002F22F4807241E80023F6
:10486000002BF5D10168143151E8002F22F001022C
:1048700041E80023002BF5D10168143151E8002FE5
:1048800022F0400241E80023002BF5D1202180F8DE
:104890003E10016B012909D101680C3151E8002F4C
:1048A00022F0100241E80023002BF5D1016B012911
:1048B00002D0FEF71DFD10BD818DFEF7DAF910BDA7
:1048C00010B5806B016B012902D0FEF759FD10BDB8
:1048D000818D4908FEF7CDF910BD01680C3151E812
:1048E000002F22F4907241E80023002BF5D10168DB
:1048F000143151E8002F22F0010241E80023002B7F
:10490000F5D1016B012909D101680C3151E8002F63
:1049100022F0100241E80023002BF5D1202180F87D
:104920003E1000210163704701680C3151E8002FEF
:1049300022F0C00241E80023002BF5D1202180F8AD
:104940003D10704738B504460C48844215D10C48D8
:104950008168491C8160801CFBF758FE2068016853
:10496000406800902046FEF785F92046BDE83840B3
:1049700003490622891CFEF7A5BC38BDB80D0020EE
:104980006401002008B590F83E10222901D00220D1
:1049900008BD82684FF480539A4201D1016921B168
:1049A000816A9A421BD04AB10AE00268816A526861
:1049B000C2F308020A80816A891C08E0026972B1A8
:1049C0000268526802F07F020A70816A491C8162A3
:1049D000C18D491E0904090CC18503D019E0026884
:1049E0005268F1E70168CA6822F02002CA600168D3
:1049F000CA6822F48072CA6001684A6922F0010222
:104A00004A61202180F83E10016B012903D0FEF796
:104A10006FFC002008BD0021016301680C3151E8E2
:104A2000002F22F0100241E80023002BF5D101688D
:104A30000A68D20602D50A6849680091818DFEF79E
:104A400018F9E6E770B5044600680169E26821F4E8
:104A50004051114301612169A068E269084361691D
:104A6000114308432168CA6849F20C639A43024320
:104A7000CA6020684169A26921F440711143416113
:104A800031492068884202D03049884202D1FDF77E
:104A900015FC01E0FDF702FCE26900231921642501
:104AA0003226B2F5004F626828D0A0FB0101930FB7
:104AB0009200FBF749FC0146B0FBF5F06FF01802DD
:104AC000504301EB800006EB0010B0FBF5F000F066
:104AD000F002B1FBF5F002EB0012B1FBF5F06FF064
:104AE0001803584301EB800006EB0010B0FBF5F013
:104AF00000F00F0021681044886070BDA0FB010128
:104B000092185B41FBF720FC0146B0FBF5F0020177
:104B1000B1FBF5F06FF01803584301EB800006EB92
:104B2000C000B0FBF5F000F0F80002EB4002B1FB72
:104B3000F5F0584301EB800006EBC000B0FBF5F048
:104B400000F00700D6E7000000100140001401400B
:104B500038B581628285002513460446056422200B
:104B600084F83E00A26B1C48D063A26B1B48106403
:104B7000A26B1B48D064A06B0A4605652168A06B38
:104B8000091DFDF7DDF8206801684068009084F891
:104B90003C50206948B120680C3050E8001F41F4B7
:104BA000807140E80012002AF5D12068143050E8E6
:104BB000001F41F0010140E80012002AF5D12068F1
:104BC000143050E8001F41F0400140E80012002A74
:104BD000F5D1002038BD00003F480008C14800085A
:104BE000F54700082DE9F041984617460E46044661
:104BF000069D27E0681C25D02DB1FDF7D7F9A0EB65
:104C00000800A8421ED920680C3050E8001F21F48B
:104C1000D07140E80012002AF5D12068143050E825
:104C2000001F21F0010140E80012002AF5D12020E8
:104C300084F83D0084F83E00002084F83C00032006
:104C4000BDE8F0812068006836EA000004D000204A
:104C5000B842CFD00020F3E70120F9E7064808B5B5
:104C600000680168406800900348FFF76BFEBDE8EC
:104C700008400148FEF738B8400E0020044882B0D2
:104C80000068016840680090014802B0FEF72CB847
:104C9000840E0020FEE7000007480068C16841F06C
:104CA0001001C160064905488022097800EBC11156
:104CB0000148FEF707BB0000B80D0020B80C00202B
:104CC000640100204100080218BF04200A0E18BF2A
:104CD00040F001004FF07F4232EA010108BF40F08E
:104CE0000200012808BF052070470907090E0028A7
:104CF00004DB00F1E02080F80014704700F00F00A2
:104D000000F1E02080F8141D7047000010EE101A2A
:104D100008B5444A6846B2EB410F28D94FF0E64047
:104D2000B0EB410F94BF00204FF0FF30009000988F
:104D3000002861DB60EE000A10F0010F45D010F092
:104D4000020FDFED391A9FED391A00EEE11ADFED9F
:104D5000381A40EE811A21EEA01AF0EE400A40EE19
:104D6000010A08BFF1EE600AB0EE600A08BD314BDF
:104D700021F0004293423CD911F0004FDFED2E0AA2
:104D800020EE201ADFED2D0A19BF31EE601A71EE08
:104D9000200A31EE201A71EE600ABDEEE01A11EE23
:104DA000100A9FED271A00F0030000EEC10A9FEDE4
:104DB000251A009000EEC10A9FED231A00EEC10AE9
:104DC0009FED221A00EEC10AB1E79FED211A9FED77
:104DD000210A10F0020F00EE810A9FED1F1A00EE6B
:104DE000801AB7EE000A00EE810A18BFB1EE400A41
:104DF00008BD00F00FF99AE710EE100A4000B0F17C
:104E00007F4F3CBFB7EE000A08BD07D14FF001004D
:104E1000FBF7B7FBBDE8084000F0ECB8BDE8084080
:104E200000F0E4B8B61F927E336D4C39DA82083C4C
:104E3000A0AA2ABE490E494683F9223F0000004B32
:104E40000000C93F00A0FD390020A2331A61342CB4
:104E5000B93AB2BACA9F2A3DDDFFFFBE00B510EED7
:104E6000101A2DED028B81B0524A6846B2EB410F09
:104E70002ED94FF0E640B0EB410F94BF00204FF029
:104E8000FF3000900098B0EE408A00286ADB10F0F6
:104E9000010F4BD068EE080A9FED471A9FED470AB5
:104EA00000EE810A9FED461A10F0020F00EE801A04
:104EB000B7EE000A00EE810A02BF01B0BDEC028B22
:104EC00000BD00BF01B0B1EE400ABDEC028B00BDD9
:104ED0003C4B21F00042934241D911F0004FDFEDED
:104EE0003A0A20EE201ADFED390A19BF31EE601AB6
:104EF00071EE200A31EE201A71EE600ABDEEE01A62
:104F000011EE100A9FED321A00F0030000EEC10A04
:104F10009FED301A009000EEC10A9FED2F1A00EEAF
:104F2000C10A9FED2E1A00EEC10AABE728EE080A6F
:104F30009FED2B1ADFED2B0A10F0020F40EE410A15
:104F40009FED291A00EE201A61EE000AB0EE480A21
:104F500008EE200AB6D101B0BDEC028B00BD00F016
:104F600059F88FE718EE100A4000B0F17F4F0DD2CC
:104F700018EE100AFFF7A6FE042808BF00F042F85A
:104F8000B0EE480A01B0BDEC028B00BD09D1012092
:104F9000FBF7F7FA01B0BDEC028B5DF804EB00F013
:104FA00029B801B0B0EE480ABDEC028B5DF804EB05
:104FB00000F01CB8B61F927EB93AB2BACA9F2A3D19
:104FC000DDFFFFBE490E494683F9223F0000004B3A
:104FD0000000C93F00A0FD390020A2331A61342C23
:104FE000336D4C39DA82083CA0AA2ABE30EE000AA2
:104FF00070470000DFED020A80EEA00A7047000053
:10500000000000009FED020A20EE000A7047000039
:10501000000000102DE9F0014FF07F42B2EB410F8C
:105020009FBF4FF0FF310160BDE8F00170474FF0C6
:10503000004242EA0123C1F3C752783A551112F0F7
:105040001F0C434CCCF120067C44C1F3C752A2F1A3
:1050500078024FEA621204EB820254F8254008BF3E
:10506000D2E9015612D0556804FA0CF425FA06F775
:105070003C43976805FA0CF527FA06F8D26807FA58
:105080000CFCF24045EA08054CEA0206A4FB034C7E
:10509000A5FB0352A6FB03631D449D4234BF0126BA
:1050A00000261319334416B1934202D903E0934208
:1050B00001D2012200E00022624402F1200C92069B
:1050C000DC0C42EA443200EE102A5B03DFED210AD9
:1050D000F8EEC01A00EE103A4FEA9C1C11F0004F97
:1050E000B8EE400AC0F800C020EE201A00EE105AB8
:1050F000DFED190AB8EE400A20EE200A71EE810AAF
:1051000070EE800A10EE902A02F500626FF30B0237
:1051100000EE902A70EEE11A31EEC11ADFED101A9E
:1051200030EE411A9FED0D0A20EE800A01EE210AB1
:105130009FED0C1A00EE810A04BFBDE8F001704734
:10514000CCF180510160BDE8F001B1EE400A70473A
:10515000E4180000000000360000802C22AAFD297F
:10516000DB0FC92F0000C92F01F0FAF80449C8600D
:10517000FEF7EAFB024805210C3000F0C9FEF7E714
:10518000D000002001F0ECF806494860FEF708FE68
:10519000FBF74AFDFBF7FCFA02480221001D00F074
:1051A000B7FEF3E7D000002001F0DAF80349886188
:1051B00002486421183000F0ABFEF9E7D00000206F
:1051C000F0B50388002541F221070CE04C5D002674
:1051D00083EA04235C001B0400D57C40761C234634
:1051E000082EF7D36D1C9542F0D30380F0BD00006C
:1051F00010B501F0B5F80349C860BDE81040FBF7F1
:105200008DBC00007800002002490220C8600248DE
:10521000FEF713B954000020280800200F489FED26
:105220000E0AF2EE0E0A80ED000A80ED010AC0EDD2
:10523000030ADFED0B0A0321C0ED040A80ED050A25
:1052400080ED020A80ED090A816280ED080A80ED96
:10525000060A80ED070A704700000000180C0020C5
:105260009A99993E0E489FED0D0ADFED0E0A80EDEA
:10527000000A80ED010AC0ED030A80ED040A80ED0A
:10528000050A80ED090A80ED020A80ED080A80ED2A
:10529000060A80ED070A03218162704700000000C2
:1052A000440C00209A99A940184800B59FED161AA1
:1052B000B1EE020A80ED071A80ED0E1A80ED0F0A9A
:1052C0009FED130A032180ED100A80ED110A80ED95
:1052D000121A80ED141A80ED131A80ED181A0D4879
:1052E00080ED001A80ED021A81620B4880ED001AF1
:1052F00080ED021A8162FFF791FFFFF7B3FF0748C5
:1053000080ED061A00BD0000000000002808002003
:105310008FC2753C180C0020440C00201C0A002091
:105320001949F1EE040A9FED190AC1ED0F0A81ED4A
:10533000100A9FED170A002281ED110AC1ED280A1B
:10534000DFED140A4FEA0203C1ED290A81ED2A0AB2
:1053500002EBC20000EB021001EB8000521C80ED5A
:10536000160A80ED0E0A80ED070A80ED120A80ED24
:10537000130A80ED140A80ED150A80ED180AA0F8D2
:105380005C30022AE4DB70475409002096438B3CD2
:10539000000000000AD7A33C024B0ECB80E80E00B1
:1053A00000207047C402002090ED000A80ED040A3E
:1053B0000A8852BA12B200EE102AB8EEC00A80ED86
:1053C000000A4A8852BA00EE102AB8EE400A80ED70
:1053D000010A8A8852BA00EE102AB8EE400A80ED1F
:1053E000020A897900EE101AB8EE400A80ED030A2D
:1053F000704790ED000A80ED040A0A8852BA12B292
:1054000000EE102AB8EEC00A80ED000A4A8852BAAF
:1054100000EE102AB8EE400A80ED010A8A8852BADE
:1054200000EE102AB8EE400A80ED020A897900EEFB
:10543000101AB8EE400A80ED030A70470349D1F80C
:105440000E200260498A81800020704724000020DD
:105450000D489FED0C0ADFED0D0A80ED000A80ED8E
:10546000010AC0ED030ADFED0A0AC0ED040A80ED6F
:10547000050A80ED020A80ED080A80ED060A80ED3B
:10548000070A704700000000940B00200000F04263
:10549000CDCC4C3F0E489FED0D0AF2EE040A80ED94
:1054A000000A80ED010AC0ED030A80ED040A80EDD8
:1054B000050A80ED020A80ED080A80ED060A80EDFB
:1054C000070A0021816280ED090A70470000000090
:1054D000EC0B002000B5FFF7BBFF5DF804EBFFF716
:1054E000D9BF00000D489FED0C0ADFED0D0A80EDDD
:1054F000000A80ED010AC0ED030AF6EE080AC0EDCD
:10550000040A80ED050A80ED020A80ED080A80EDAC
:10551000060A80ED070A704700000000680B0020B3
:10552000000025430E489FED0D0AF2EE040A80EDBF
:10553000000A80ED010AC0ED030A80ED040A80ED47
:10554000050A80ED020A80ED080A80ED060A80ED6A
:10555000070A0121816280ED090A704700000000FE
:10556000C00B002000B5FFF7BDFF5DF804EBFFF7AF
:10557000D9BF000010B503490348FEF7B7FB002070
:1055800010BD0000AD3A000838020020EFF305809E
:10559000002801D001207047002070479FED091AB4
:1055A00080ED001A80ED051A80ED080AC0ED090AA9
:1055B000B7EE000A80ED070A80ED0A0A80ED011AB5
:1055C000704700000000000090ED070AD0ED0E0AC1
:1055D000234A30EE600A80ED140AD0ED150A70EE11
:1055E000800A10EE901AC0ED150A914203DBDFED40
:1055F0001D0AC0ED150A10EE901A1B4A914203D302
:10560000DFED1A0AC0ED150AD0ED0F0A90ED101A61
:10561000D0ED151A60EE800A42F2107241EE210AB6
:1056200090ED131AD0ED111A30EE411A41EE810AB5
:10563000C0ED160A80ED130ABDEEE00A10EE101A56
:1056400009B2A0F85C10914201DBA0F85C20B0F92F
:105650005C2007498A4201DCA0F85C10704700001A
:1056600000401C4600401C4600401CC600401CC6B2
:10567000F0D8FFFFFCF7A8FCFEF706FFFEF73EF8A8
:10568000FDF7B0FFFDF766FFFDF788FFFEF71CF999
:10569000FEF7E2F8FEF770F8FEF738F9FEF7C0F80B
:1056A000FEF7F6F8FBF72CF8FBF74EF8FEF79CFA3E
:1056B000FFF7F2FAFFF75EFF3020FAF7B9FF082193
:1056C0001248FDF767FA12480068C16841F01001FE
:1056D000C16006220F490E48FDF7F4FD01220E4974
:1056E0000E48FDF7EFFD12220D490E48FDF7EAFDC9
:1056F0000E490D488022097800EBC1110C48FDF7D6
:10570000E1FDFDF7A5FF00F023F8FEE7700C002097
:10571000400E00206601002065010020FC0D0020E5
:1057200014020020840E0020B80C00206401002028
:10573000B80D00200021842800D0C11C0846704705
:1057400010B5002900D1012100F0E2FB002010BDBE
:1057500010B500F02BFC002010BD10B5FFF716FFB0
:1057600018B1BDE8104000F001BEBDE8104000F0E7
:10577000F7BD30B585B004460D466169B4F908003F
:10578000002910D0A16971B1FFF7D4FF6269A16946
:105790000192029100902B4622692168606800F016
:1057A000AFFD049010E0FFF7C5FF04A90191009040
:1057B000208A2B4682B22168606800F06BFD0128C8
:1057C00002D005B0002030BD049805B030BD000007
:1057D0002DE9F04104460F46194EF5683068001D6A
:1057E00000F09EFA48B93068012190F82C0001FAC7
:1057F00000F0316921EA00003061B4F1FF3F07D1C8
:1058000037B13068BDE8F041011D0E4800F0CFBA55
:105810002C4430684460AC4206D23068011DB06B45
:10582000BDE8F04100F0A8BA3068011D706B00F0CF
:10583000A3FAB06A844200D2B462BDE8F0810000ED
:1058400080010020B011002070B5044600F0BCFAC1
:105850001C4DA868401CA860286810B1686938B160
:105860000CE02C60A868012808D100F0EDF805E0F4
:105870002868E16AC06A884200D82C60686A401CC7
:105880006862E06A01212A698140114329610E4959
:1058900000EB800001EB8000211D00F088FA00F091
:1058A000B3FA686900280CD02868E16AC06A8842A7
:1058B00007D206494FF080500860BFF34F8FBFF307
:1058C0006F8F70BD80010020D410002004ED00E037
:1058D00070B50D4C6068002815D00C4E00F074FABD
:1058E000F068C568281D00F01BFAA068401EA06083
:1058F0006068401E606000F087FA284600F008F8F3
:1059000060680028EAD170BD800100209C11002051
:1059100010B5044694F8511000290BD0012911D07C
:10592000022914D0502080F31188BFF34F8FBFF3AA
:105930006F8FFEE7206B00F07DFA2046BDE8104037
:1059400000F078BA2046BDE8104000F073BA10BDF0
:105950004FF47051104810F0070F06D0C01D20F012
:1059600007000D49411AC1F570510C4A106000231F
:1059700053600144083921F00701183A11604B6067
:105980000B600B1A436001604068906050604FF0FC
:105990000040506170470000C4110020D401002075
:1059A000074E4FF08054074DFFF792FF30680128F3
:1059B000FAD92C60BFF34F8FBFF36F8FF4E700006D
:1059C000D410002004ED00E02DE9F0478146099E47
:1059D000089D0A9C9A46521E206B00EB820020F024
:1059E0000708002700290CD0002023180A5C83F840
:1059F00034200A5C12B1401C1028F6D384F843709E
:105A000001E084F83470072D00D30625E562656453
:105A1000A764201D00F0ADF904F1180000F0A9F909
:105A20002461C5F10700A0616462E76484F85070E6
:105A300052464946404600F003F92060002E00D04F
:105A40003460BDE8F087000070B500240F4D04EB12
:105A5000840005EB800000F081F9641C072CF6D36C
:105A60000B4800F07BF90B4800F078F90A4800F089
:105A700075F90A4800F072F9094800F06FF9094811
:105A8000034941631431816370BD0000D4100020CC
:105A90006011002074110020881100209C1100204A
:105AA000B01100208001002010B4144900E011461C
:105AB0000A688242FBD34B6803EB010C844503D197
:105AC00040681844486008460C68D0F804C00CEBE5
:105AD0000003A3420CD10A4B1B689A4206D05268BD
